S00E0000315F776972652E73726563CF
S11300000C9434000C9446000C9446000C94460066
S11300100C9446000C9446000C9446000C94460044
S11300200C9446000C9446000C9446000C94460034
S11300300C9446000C9446000C9446000C94460024
S11300400C9446000C9446000C9446000C94460014
S11300500C9446000C9446000C9446000C94460004
S11300600C9446000C94460011241FBECFEFD8E038
S1130070DEBFCDBF21E0A0E0B1E001C01D92A834F5
S1130080B207E1F70E9416010C94CD020C94000013
S11300904F925F926F927F928F929F92AF92BF9294
S11300A0CF92DF92EF92FF920F931F93CF93DF9340
S11300B01F92CDB7DEB77C0120E0261749F0FC0182
S11300C0119209961192E817F907E1F72F5FF5CF1E
S11300D081E00E947F02782E27018FEF481A580A88
S11300E088E0C82ED12C00E011E0420198E0692E8E
S11300F0812F872149F1F201520160E0D201862D5E
S113010001900D928A95E1F7812F69830E947F0205
S1130110412F6981C2010E94C301682FF70199E050
S1130120099FE00DF11D112410830F5F270189E061
S1130130089F400C511C11249FEF491A590AF501DC
S1130140662311F05201DACF110F81E0C81AD108E9
S113015079F6740110E0101751F0C7010E945001A4
S113016099E0E90EF11C811104C01F5FF4CF80E017
S113017001C081E00F90DF91CF911F910F91FF900B
S1130180EF90DF90CF90BF90AF909F908F907F9033
S11301906F905F904F9008956F5F7F4F90E09B0149
S11301A021503109941749F0675F7F4FFB0139975C
S11301B05081581721F09F5FF2CF20E030E0C90151
S11301C008950F931F93CF93C82F8B010E947F0232
S11301D0811103C088E19CEF25C06C2FC8010E94E7
S11301E09A016C2F84E40E9472018C2F0E945802A1
S11301F08823D9F38C2F0E947F02882359F36C2F14
S1130200C8010E949A016C2F8EEB0E9472018C2F00
S11302100E948701082F10E08C2F0E94870198010B
S1130220382BC901CF911F910F9108950E94A70205
S11302308DEF809364008FEF84B981E00E942002E7
S113024041E068E080E091E00E9448008111F8CF2D
S113025048E060E071E080E10E94CC00EC0180E0C5
S113026090E08E010F5F1F4F209721F0B801888125
S11302700E94E1009C0135952795209525B9F4CF7E
S113028098E028E1362F382730FD02C0669503C078
S113029062276695606886959150A1F7862F089528
S11302A0EF92FF920F931F93CF93DF93EC017C01A6
S11302B087E0E80EF11C8E0160E0F80181918F0166
S11302C00E944001682F0E151F05B9F781E09F8138
S11302D0691301C080E0DF91CF911F910F91FF90CE
S11302E0EF9008951F93CF93DF93D82F162FC8E074
S11302F0812FD0FF03C00E942A0202C00E94410243
S1130300D695C150A9F7DF91CF911F9108951F93FE
S1130310CF93DF93182FD8E0C0E0C695812F0E94B9
S113032058028111C068D150C1F78C2FDF91CF9151
S11303301F910895CF92DF92EF92FF921F93CF9374
S1130340DF931F92CDB7DEB7F82E162F85E599837C
S11303500E947201CF2C9981D92E760188E0E80E93
S1130360F11C612FF60181916F010E947201CE147C
S1130370DF04B9F70F90DF91CF911F91FF90EF90B9
S1130380DF90CF900895CF92DF92EF92FF920F9378
S11303901F93CF93DF938C01D62EE42E642F80EF2E
S11303A00E947201C1E0F12CD1E08E2D0E9458020E
S11303B0C82E8E2D0E945802CC2039F0811133C0F2
S11303C0F80180818C2B808319C0F80190818823E7
S11303D021F08C2F8095982303C0DD1104C09C2B41
S11303E0F80190830BC0DD1630F48C2F8095982390
S11303F0F801908302C09C2309F4FD2EF80180814A
S11304008C2321F08E2D0E942A0203C08E2D0E947F
S11304104102DF5FCC0F19F40F5F1F4FC1E0D134ED
S113042021F68F2D01C08FEFDF91CF911F910F9196
S1130430FF90EF90DF90CF9008955098589A0895C8
S1130440813019F450980E941D028CEB93E00197BF
S1130450F1F70895CF93CFB7F894813011F4509AFF
S11304605898E8E0F0E03197F1F7813019F45098AA
S11304700E941D028CE790E00197F1F7CFBFCF9166
S11304800895CF93CFB7F894813011F4509A5898C7
S1130490E4E7F0E03197F1F7813019F450980E94C5
S11304A01D0280E190E00197F1F7CFBFCF9108954D
S11304B01F93CF93DF931F92CDB7DEB71FB7F89486
S11304C0813011F4509A5898E8E0F0E03197F1F750
S11304D0813029F4509889830E941D028981EEE0BD
S11304E0F0E03197F1F799B1EAE6F0E03197F1F7EE
S11304F01FBF89230F90DF91CF911F9108951F9300
S1130500CF93DF931F92CDB7DEB71FB7F894813036
S113051011F4509A5898ECEBF3E03197F1F78130ED
S113052029F4509889830E941D028981E8E8F0E04B
S11305303197F1F799B1E0E3F3E03197F1F71FBF99
S1130540909589230F90DF91CF911F9108958FEE9D
S11305508093640084B114B885B19FEF95B987B1D5
S1130560807887B988B18F6788B98AB11AB88BB196
S11305709BB950985098589A40E060E881E690E022
S11305800E94C50213BE15BE08952FB7F894E82F34
S1110590F92F608340832FBF0895F894FFCFA6
S9030000FC
