S00E0000315F776972652E73726563CF
S11300000C9434000C9446000C9446000C94460066
S11300100C9446000C9446000C9446000C94460044
S11300200C9446000C9446000C9446000C94460034
S11300300C9446000C9446000C9446000C94460024
S11300400C9446000C9446000C9446000C94460014
S11300500C9446000C9446000C9446000C94460004
S11300600C9446000C94460011241FBECFEFD8E038
S1130070DEBFCDBF21E0A0E0B1E001C01D92A834F5
S1130080B207E1F70E942D010C94C4020C94000005
S11300908F929F92AF92BF92CF92DF92EF92FF9294
S11300A00F931F93CF93DF938C01662359F020E0C5
S11300B0FC011192099611928E179F07E1F72F5FA9
S11300C02613F6CF81E00E948202982EE801219641
S11300D06894EE24E3F8F12CD12CCC24C394812C25
S11300E06894AA24A3F88C2D8921C1F1EC2FFD2F4B
S11300F0B82C01C0E901DE018A2D01900D928A9588
S1130100E1F78C2D0E9482024C2D6B2DCE010E94B2
S1130110CA01B82E8D2D90E0FC01EE0FFF1FEE0FEB
S1130120FF1FEE0FFF1F8E0F9F1FF801E80FF91F2F
S1130130C082D3942D2D30E0C901880F991F880FF8
S1130140991F880F991F280F391F200F311F2F5F08
S11301503F4FEC2FFD2FB110CDCFE901CC0C81E046
S1130160E81AF10809F0BFCFDD2071F00F5F1F4FCF
S1130170C0E0C8010E946701811108C0CF5F075F1A
S11301801F4FCD11F6CF03C080E001C081E0DF91A5
S1130190CF911F910F91FF90EF90DF90CF90BF9080
S11301A0AF909F908F9008954423E1F0FB019181DB
S11301B098130BC007C0275F3F4FF901399750814F
S11301C0581307C0862F972F08959B01265F3F4F32
S11301D090E0B901615071099F5F9413ECCF80E006
S11301E090E0089580E090E008950F931F93CF93DB
S11301F0C82F8B010E948202882331F16C2FC80121
S11302000E94B0016C2F84E40E9487018C2F0E940D
S113021067028823D9F38C2F0E9482028823B9F0C5
S11302206C2FC8010E94B0016C2F8EEB0E948701D5
S11302308C2F0E949D01082F10E08C2F0E949D019D
S11302409801382BC90105C088E19CEF02C088E100
S11302509CEFCF911F910F9108950E949E028DEF04
S1130260809364008FEF84B981E00E94330241E0FF
S113027068E080E091E00E9448008111F8CF48E0F6
S113028060E071E080E10E94D400EC0180E090E045
S11302908E010F5F1F4F209721F0B80188810E94C3
S11302A0F5009C0135952795209525B9F4CF98E064
S11302B038E1262F282720FD02C0669503C0632756
S11302C06695606886959150A1F7862F0895EF9200
S11302D0FF920F931F93CF93DF937C018C01095FEF
S11302E01F4FEC0160E089910E945701682FC017ED
S11302F0D107C9F781E0F7019781691301C080E054
S1130300DF91CF911F910F91FF90EF9008951F936C
S1130310CF93DF93D82F162FC8E0D0FF04C0812FCE
S11303200E943D0203C0812F0E945202D695C15003
S1130330A1F7DF91CF911F9108951F93CF93DF937E
S1130340182FD8E0C0E0C695812F0E946702811162
S1130350C068D150C1F78C2FDF91CF911F910895C0
S1130360FF920F931F93CF93DF938C01F62E85E5B5
S11303700E948701E801085F1F4F6F2D89910E9439
S11303808701C017D107C9F7DF91CF911F910F9152
S1130390FF900895BF92CF92DF92EF92FF920F9356
S11303A01F93CF93DF938C01D62EF42E642F80EF0E
S11303B00E948701C1E0B12CD1E0CC24C3948F2DDD
S11303C00E946702E82E8F2D0E946702EE2009F436
S11303D03DC0811139C0F80190819C2B90831DC0D0
S11303E0F80120819C2F90959223908316C0DD11F3
S11303F005C0F80180818C2B80830FC0DD1640F48A
S1130400F80190818C2F809589238083BD2E05C0AF
S1130410F80190819C2349F004C0F80190819C2349
S113042029F08F2D0E943D0204C0BD2E8F2D0E9405
S11304305202DF5FCC0F19F40F5F1F4FCC2DD13464
S113044009F0BDCF8B2D05C08FEF03C08111C8CF3C
S1130450CECFDF91CF911F910F91FF90EF90DF905E
S1130460CF90BF900895813019F450985098589ABD
S11304708CEB93E00197F1F708952FB7F89481304E
S113048011F4509A5898E8E0F0E03197F1F7813090
S113049019F450985098589A8CE790E00197F1F726
S11304A02FBF08952FB7F894813011F4509A5898BB
S11304B0E4E7F0E03197F1F7813019F4509850985F
S11304C0589A80E190E00197F1F72FBF08952FB774
S11304D0F894813011F4509A5898E8E0F0E031979C
S11304E0F1F7813019F450985098589AEEE0F0E002
S11304F03197F1F799B1EAE6F0E03197F1F72FBFC0
S1130500892308952FB7F894813011F4509A58989C
S1130510ECEBF3E03197F1F7813019F450985098EF
S1130520589AE8E8F0E03197F1F799B1E0E3F3E0A5
S11305303197F1F72FBF9095892308958FEE80931B
S1130540640084B114B885B19FEF95B987B1807800
S113055087B988B18F6788B98AB11AB88BB19BB94A
S113056050985098589A40E060E881E690E00E94E4
S1130570BC0213BE15BE08952FB7F894E82FF92FC7
S10F0580608340832FBF0895F894FFCFE0
S9030000FC
